:0709B20072616E646F6D00BD
:0709AA00010A000208000031
:0609B9001209A10209BFB2
:0409C4004387012242
:0909A100C2A2C2A3C2A4020965AE
:03002B000208DFE9
:1008DF00C0E0C0F0C083C082C0D075D000C000C0DF
:1008EF0001C002C003C004C005C006C007C2CF12BA
:1008FF00091CD007D006D005D004D003D002D001F8
:0D090F00D000D0D0D082D083D0F0D0E03224
:10088C00AB07AE04AF057C037DE812098F0509E5C3
:10089C0009AC0870020508146F7002EE6C70338B93
:1008AC000AEBFF7E0064017008C2A2D2A3C2A4802E
:1008BC001CEF64024E7008C2A2C2A3D2A4800EEF39
:1008CC004E7004D2A28002C2A2C2A3C2A4E4F50854
:0308DC00F50922F9
:10091C00E50A1460111460182402701ED2A27D0323
:10092C007C007F018016D2A37D0C7C007F02800CA2
:10093C00D2A47D087C00E4FF80027FB212088C22D6
:0509BF001209C480FBD9
:1009650075C80475CDFC75CBFC75CC1875CA18D245
:06097500ADD2CAD2AF2290
:10097B00E4FFFE1209650FBF00010EE4B507F4EEAC
:03098B00B47DF048
:01098E002246
:04094C00AD07AC0641
:10095000E4FBFAC3EB9DEA9C500A12097B0BBB0037
:04096000010A80EF19
:010964002270
:03000000020800F3
:0C080000787FE4F6D8FD75810C020847F3
:10098F00EF8DF0A4A8F0CF8CF0A428CE8DF0A42E7C
:02099F00FE2236
:10080C000209B9E493A3F8E493A34003F68001F240
:10081C0008DFF48029E493A3F85407240CC8C333ED
:10082C00C4540F4420C8834004F456800146F6DFBC
:10083C00E4800B01020408102040809009AAE47E99
:10084C00019360BCA3FF543F30E509541FFEE493B1
:10085C00A360010ECF54C025E060A840B8E493A378
:10086C00FAE493A3F8E493A3C8C582C8CAC583CAA3
:10087C00F0A3C8C582C8CAC583CADFE9DEE780BE5B
:0109B1000045
:00000001FF
