:07096800010A000208000073
:0609700012095F02097686
:04097B00438701228B
:09095F00C2A2C2A3C2A402093520
:03002B000208DFE9
:1008DF00C0E0C0F0C083C082C0D075D000C000C0DF
:1008EF0001C002C003C004C005C006C007C2CF12BA
:1008FF00088CD007D006D005D004D003D002D00189
:0D090F00D000D0D0D082D083D0F0D0E03224
:10088C00E50A14601B14602D24027040D2A27F086C
:10089C007E0012091C750A01C2A2D2A3C2A4801246
:1008AC00D2A37F037E0012091C750A02C2A2C2A346
:1008BC00D2A4E48012D2A47F0C7E0012091CE4F5B1
:1008CC000AD2A2C2A3C2A4F508F50922C2A2C2A3ED
:0308DC00C2A42291
:0509760012097B80FB6B
:1009350075C80475CDFC75CBFC75CC1875CA18D275
:06094500ADD2CAD2AF22C0
:10094B00E4FFFE1209350FBF00010EE4B507F4EE0C
:03095B00B47DF078
:01095E002276
:04091C00AD07AC0671
:10092000E4FBFAC3EB9DEA9C500A12094B0BBB0097
:04093000010A80EF49
:0109340022A0
:03000000020800F3
:0C080000787FE4F6D8FD75810C020847F3
:10080C00020970E493A3F8E493A34003F68001F289
:10081C0008DFF48029E493A3F85407240CC8C333ED
:10082C00C4540F4420C8834004F456800146F6DFBC
:10083C00E4800B0102040810204080900968E47EDB
:10084C00019360BCA3FF543F30E509541FFEE493B1
:10085C00A360010ECF54C025E060A840B8E493A378
:10086C00FAE493A3F8E493A3C8C582C8CAC583CAA3
:10087C00F0A3C8C582C8CAC583CADFE9DEE780BE5B
:01096F000087
:00000001FF
