:0709250002080000010A00B6
:06092D0012090802093363
:0409380043870122CE
:10090800C2A2C2A3C2A475C80475CD3C75CB3C7500
:0D091800CCB075CAB0D2CAD28875A8A5228D
:03002B0002088C3C
:10088C00C0E0C0D075D000C006C2CFE50A1460220B
:10089C0014603C24027058D2A20509E509AE087018
:1008AC000205081464324E704C750A01C2A2D2A320
:1008BC008035D2A30509E509AE0870020508146459
:1008CC00324E7031750A02C2A2C2A3D2A4801AD2CF
:1008DC00A40509E509AE08700205081464324E70CF
:1008EC0014F50AD2A2C2A3C2A4F508F5098006C267
:0C08FC00A2C2A3C2A4D006D0D0D0E0322B
:0509330012093880FBF1
:03000000020800F3
:0C080000787FE4F6D8FD75810A020847F5
:10080C0002092DE493A3F8E493A34003F68001F2CC
:10081C0008DFF48029E493A3F85407240CC8C333ED
:10082C00C4540F4420C8834004F456800146F6DFBC
:10083C00E4800B0102040810204080900925E47E1E
:10084C00019360BCA3FF543F30E509541FFEE493B1
:10085C00A360010ECF54C025E060A840B8E493A378
:10086C00FAE493A3F8E493A3C8C582C8CAC583CAA3
:10087C00F0A3C8C582C8CAC583CADFE9DEE780BE5B
:01092C0000CA
:00000001FF
